:1000000063EF07F00000000000EF00F000000000C8
:0A0010000000000000000000F3D71C
:0E001C00010100B102D08B9801D08B88120038
:0E002A00010100B102D08B9601D08B8612002E
:0E003800010100B102D08D9601D08D8612001C
:0E004600010100B102D0899401D0898412001A
:0E005400010100B102D08B9C01D08B8C1200F8
:0E006200010100B102D08B9401D08B841200FA
:0E007000010100B102D08B9A01D08B8A1200E0
:0E007E00010100B102D08B9E01D08B8E1200CA
:0E008C00010100B102D08A9201D08A821200D6
:0E009A00010100B102D08D9401D08D841200BE
:0E00A800010100B102D08F9201D08F821200B0
:0E00B600010100B102D08F9401D08F8412009E
:0E00C400010100B102D08B9801D08B88120090
:0E00D200010100B102D08B9601D08B86120086
:0E00E000010100B102D08A9401D08A8412007E
:0E00EE00010100B102D08B9801D08B88120066
:0E00FC00010100B102D08B9601D08B8612005C
:0E010A00010100B102D08F9001D08F80120051
:0E011800010100B102D08B9A01D08B8A120037
:0E012600010100B102D08B9801D08B8812002D
:0E013400010100B102D08B9601D08B86120023
:0E014200010100B102D08B9201D08B8212001D
:0E015000010100B102D08B9A01D08B8A1200FF
:0E015E00010100B102D08D9001D08D80120001
:10016C000F0121B302D00000FBD700C11CFF12000D
:0E017C00ACB202D00000FCD700C1ADFF1200F3
:0E018A00010100B102D08B9001D08B801200D9
:0E019800010100B102D0899001D089801200CF
:0E01A600010100B102D08A9001D08A801200BF
:0E01B400010100B102D08D9201D08D821200A7
:0E01C200010100B102D0899801D08988120095
:0E01D000010100B102D08B9801D08B88120083
:0E01DE00010100B102D08B9601D08B86120079
:0E01EC00010100B102D0899201D08982120077
:0E01FA00010100B102D08B9C01D08B8C120051
:0E020800010100B102D08B9E01D08B8E12003E
:0E021600010100B102D08B9801D08B8812003C
:0E022400010100B102D08B9601D08B86120032
:0A023200000E84B0010E006E1200F1
:0A023C00000EA4BA010E006E1200BD
:0A024600000E84B2010E006E1200DB
:0A025000000E82B2010E006E1200D3
:0A025A00000E82BA010E006E1200C1
:0A026400000E80B0010E006E1200C3
:0C026E00000E0F0121B3010E006E120003
:0A027A00000E9EBA010E006E120085
:0A028400000EACB2010E006E120075
:10028E001DCF01F00F0122A302D02299228901C0B5
:04029E0000F012005A
:0A02A200000E82B0010E006E120083
:1002AC00F250026EF29E0500FF6A0150FE6E005085
:0802BC00FD6E02BEF28E12007D
:1002C400AECF01F0ABA202D0AB98AB8801C000F076
:0202D400120016
:0A02D600000E82B8010E006E120047
:0A02E000000E82B8010E006E12003D
:0A02EA00000E86B4010E006E120033
:0A02F400000E82B6010E006E12002B
:0A02FE00000E84B6010E006E12001F
:0A030800000E82B6010E006E120016
:0A031200000E82B8010E006E12000A
:0A031C00000E80B4010E006E120006
:0A032600000E81B4010E006E1200FB
:0A033000000E86B2010E006E1200EE
:10033A007C0E0001E96F010EEA6F000EEB6F010EF1
:10034A00EC6FC40EED6F020EEE6F000EEF6F000E33
:10035A00F06F7A0EE16F020EE26F000EE36F000E8D
:10036A00E46F840EE56F020EE66F000EE76F000E73
:10037A00E86FAC8A900EAB6E948E949C9EAA03D0C2
:08038A00AECF00F0FBD712001A
:0A039200000E82B8010E006E12008A
:0A039C00000E84B4010E006E120082
:0A03A600000E82BA010E006E120074
:1003B0006C0E0001E96F010EEA6F000EEB6F010E8B
:1003C000EC6F8E0EED6F020EEE6F000EEF6F000EF3
:1003D000F06F3C0EE16F020EE26F000EE36F000E55
:1003E000E46F6E0EE56F020EE66F000EE76F000E13
:1003F000E86F0F01218B900E226F98849892A4AA27
:0A04000003D01DCF00F0FBD712005F
:0A040A00000E82B6010E006E120013
:0A041400000E82BC010E006E120003
:0A041E00000E82B6010E006E1200FF
:0A042800000E82BC010E006E1200EF
:0A043200000E80B2010E006E1200F1
:0A043C00000E80B8010E006E1200E1
:0A044600000E82BE010E006E1200CF
:0A045000000E81B0010E006E1200D4
:0A045A00000E82B8010E006E1200C1
:0A046400000E82B6010E006E1200B9
:0A046E00000E82B4010E006E1200B1
:0A047800000E81B2010E006E1200AA
:0A048200000E82BE010E006E120093
:0A048C00000E82BA010E006E12008D
:0A049600000E86B0010E006E120089
:0A04A000000E82B6010E006E12007D
:0A04AA00000E82B8010E006E120071
:1004B40021D0CF0EAF6EAC943EDF6BD0670EAF6E23
:1004C400AC9439DF66D0CF0EAF6EAC8434DF61D02C
:1004D400670EAF6EAC842FDF5CD0440EAF6EAC847D
:1004E4002ADF57D0220EAF6EAC8425DF52D0060E21
:1004F400006E58D00001000E006EFF1908E1005094
:10050400FE1905E1120EFD1902E1FC51C00AD1E009
:10051400000E006EFF1908E10050FE1905E1250EDA
:10052400FD1902E1FC51800AC9E0000E006EFF19BA
:1005340008E10050FE1905E14B0EFD1902E1FC51E2
:10054400000AC1E0000E006EFF1908E10050FE1918
:1005540005E1960EFD1902E1FC51000AB9E0000E16
:10056400006EFF1908E10050FE1905E1E10EFD19C6
:1005740002E1FC51000AB1E0FF51000A08E1FE511A
:10058400010A05E1FD51C20A02E1FC51000AAAE098
:10059400AED77C0EDD6F010EDE6F000EDF6F010E35
:0605A400E06F006A120086
:1005AA0021D0CF0EAF6EAC94C3DE6BD0670EAF6EA8
:1005BA00AC94BEDE66D0CF0EAF6EAC84B9DE61D02D
:1005CA00670EAF6EAC84B4DE5CD0440EAF6EAC8402
:1005DA00AFDE57D0220EAF6EAC84AADE52D0060E22
:1005EA00006E58D00001000E006EFF1908E100509D
:1005FA00FE1905E1120EFD1902E1FC51C00AD1E013
:10060A00000E006EFF1908E10050FE1905E1250EE3
:10061A00FD1902E1FC51800AC9E0000E006EFF19C3
:10062A0008E10050FE1905E14B0EFD1902E1FC51EB
:10063A00000AC1E0000E006EFF1908E10050FE1921
:10064A0005E1960EFD1902E1FC51000AB9E0000E1F
:10065A00006EFF1908E10050FE1905E1E10EFD19CF
:10066A0002E1FC51000AB1E0FF51000A08E1FE5123
:10067A00010A05E1FD51C20A02E1FC51000AAAE0A1
:10068A00AED77C0EDD6F010EDE6F000EDF6F010E3E
:06069A00E06F006A12008F
:1006A00021D0CF0EAF6EAC9448DE6BD0670EAF6E2C
:1006B000AC9443DE66D0CF0EAF6EAC843EDE61D02C
:1006C000670EAF6EAC8439DE5CD0440EAF6EAC8486
:1006D00034DE57D0220EAF6EAC842FDE52D0060E21
:1006E000006E58D00001000E006EFF1908E10050A6
:1006F000FE1905E1120EFD1902E1FC51C00AD1E01C
:10070000000E006EFF1908E10050FE1905E1250EEC
:10071000FD1902E1FC51800AC9E0000E006EFF19CC
:1007200008E10050FE1905E14B0EFD1902E1FC51F4
:10073000000AC1E0000E006EFF1908E10050FE192A
:1007400005E1960EFD1902E1FC51000AB9E0000E28
:10075000006EFF1908E10050FE1905E1E10EFD19D8
:1007600002E1FC51000AB1E0FF51000A08E1FE512C
:10077000010A05E1FD51C20A02E1FC51000AAAE0AA
:10078000AED77C0EDD6F010EDE6F000EDF6F010E47
:06079000E06F006A120098
:1007960038D00F0120870D0E1F6F040E1E6F2185A6
:1007A60004DE7ED00F012087060E1F6F820E1E6F9D
:1007B6002185FBDD75D00F012087030E1F6F400ECC
:1007C6001E6F2185F2DD6CD00F012087010E1F6F91
:1007D600A00E1E6F2185E9DD63D00F012087010E73
:1007E6001F6F150E1E6F2185E0DD5AD00F01208781
:1007F6001F6B8A0E1E6F2185D8DD52D0060E006E45
:1008060059D0000E006E0001FF1908E10050FE19D4
:1008160005E1120EFD1902E1FC51C00ABAE0000E14
:10082600006EFF1908E10050FE1905E1250EFD19BD
:1008360002E1FC51800AB6E0000E006EFF1908E1E5
:100846000050FE1905E14B0EFD1902E1FC51000AAC
:10085600B2E0000E006EFF1908E10050FE1905E136
:10086600960EFD1902E1FC51000AAEE0000E006E84
:10087600FF1908E10050FE1905E1E10EFD1902E13C
:10088600FC51000AAAE0FF51000A08E1FE51010AE4
:1008960005E1FD51C20A02E1FC51000AA7E0AED70C
:1008A60000016C0EDD6F010EDE6F000EDF6F010EB4
:0608B600E06F006A120071
:1008BC0059D00001FDB102D0929201D092820F0169
:1008CC00259376D00001FDB102D0929801D0928888
:1008DC006FD00001FDB102D0969201D0968268D003
:1008EC000001FDB102D0949601D0948661D0000134
:1008FC00FDB102D0949801D094885AD00001FDB17A
:10090C0002D0949A01D0948A53D00001FDB102D048
:10091C00949401D094844CD00001FDB102D09392F8
:10092C0001D0938245D00001FDB102D0949E01D03C
:10093C00948E3ED00001FDB102D0949C01D0948CD9
:10094C0037D00001FDB102D0949601D0948630D0FE
:10095C000001FDB102D0949801D0948829D0010EE9
:10096C00006E28D00001FC51000AA3E0FC51010AE2
:10097C00A9E0FC51020AADE0FC51030AB1E0FC51C4
:10098C00040AB5E0FC51050AB9E0FC51060ABDE0C9
:10099C00FC51070AC1E0FC51080AC5E0FC51090AE8
:1009AC00C9E0FC510A0ACDE0FC510B0AD1E0D7D7C3
:0609BC00000E006E1200A7
:1009C200DFC0E1FFE0C0E2FFFCC0E9FFFDC0EAFFDB
:1009D200EECFE6FFDDC000F0DEC001F066DC006AAB
:0209E200120001
:1009E40059D00001FDB102D0929001D092800F0144
:1009F400259176D00001FDB102D0949001D094806D
:100A04006FD00001FDB102D0969001D0968068D0DD
:100A14000001FDB102D0949601D0948661D000010A
:100A2400FDB102D0949801D094885AD00001FDB150
:100A340002D0949A01D0948A53D00001FDB102D01F
:100A4400949201D094824CD00001FDB102D09390D5
:100A540001D0938045D00001FDB102D0949E01D015
:100A6400948E3ED00001FDB102D0949C01D0948CB0
:100A740037D00001FDB102D0949601D0948630D0D5
:100A84000001FDB102D0949801D0948829D0010EC0
:100A9400006E28D00001FC51000AA3E0FC51010AB9
:100AA400A9E0FC51020AADE0FC51030AB1E0FC519B
:100AB400040AB5E0FC51050AB9E0FC51060ABDE0A0
:100AC400FC51070AC1E0FC51080AC5E0FC51090ABF
:100AD400C9E0FC510A0ACDE0FC510B0AD1E0D7D79A
:060AE400000E006E12007E
:100AEA005DD00001FDB102D0929401D092840F0131
:100AFA0025957AD00001FDB102D0969601D096864E
:100B0A0073D00001FDB102D0969401D096846CD0C6
:100B1A000001FDB102D0949601D0948665D00001FF
:100B2A00FDB102D0949801D094885ED00001FDB145
:100B3A0002D0949A01D0948A57D00001FDB102D014
:100B4A00989001D0988050D00001FDB102D09394C2
:100B5A0001D0938449D00001FDB102D0989401D00C
:100B6A0098840F01239540D00001FDB102D09892DC
:100B7A0001D098820F01239337D00001FDB102D032
:100B8A00949601D0948630D00001FDB102D0949899
:100B9A0001D0948829D0010E006E28D00001FC51A2
:100BAA00000A9FE0FC51010AA5E0FC51020AA9E0F3
:100BBA00FC51030AADE0FC51040AB1E0FC51050AFC
:100BCA00B5E0FC51060AB9E0FC51070ABDE0FC5148
:100BDA00080AC1E0FC51090AC7E0FC510A0ACDE043
:0E0BEA00FC510B0AD1E0D7D7000E006E1200AE
:100BF800300E0001FC25006E000EFD21016E000E76
:100C0800FE21026E1C0E0024F66E000E0120F76E07
:100C1800000E0220F86E0900F5CFF1F00900F5CFBB
:100C2800F2F00900F5CFF3F00900F5CFF4F0120067
:100C380015D0F6C0FCF0F7C0FDF0D0DE1AD0F6C033
:100C4800FCF0F7C0FDF036DE14D0F6C0FCF0F7C0BB
:100C5800FDF047DF0ED0010E006E0BD00001F551FC
:100C6800000AE7E0F551010AEAE0F551020AEDE071
:040C7800F2D712009D
:100C7C002CD0F6C0FCF0F7C0FDF0F8C0FEF0F9C0C7
:100C8C00FFF08DDC30D0F6C0FCF0F7C0FDF0F8C002
:100C9C00FEF0F9C0FFF0FEDC26D0F6C0FCF0F7C089
:100CAC00FDF0F8C0FEF0F9C0FFF06FDD1CD0F6C00F
:100CBC00FCF0F7C0FDF0F8C0FEF0F9C0FFF05AEC04
:100CCC0002F011D0010E006E0ED00001F551000A99
:100CDC00D0E0F551010AD7E0F551020ADEE0F551FA
:080CEC00100AE5E0EFD7120049
:100CF400F5C0F8F0F6C0F9F00D0E0001FA6F0A0E17
:100D0400FB6F35D0F8C0FCF0F9C0FDF058DE3AD0E6
:100D1400F8C0E9FFF9C0EAFFEE5209E0F8C0FCF0C0
:100D2400F9C0FDF04CDE0001F84BF92BF1D72AD0C5
:100D3400F8C0E9FFF9C0EAFFEE5209E0F8C0FCF0A0
:100D4400F9C0FDF03CDE0001F84BF92BF1D70001AE
:100D5400FA0EFC6F000EFD6F32DEFB0E0001FC6F1D
:100D6400000EFD6F2CDE0ED0060E006E0CD00001BE
:100D7400F751000AC7E0F751010ACAE0F751020A25
:080D8400D7E0F2D7006A12006B
:0E0D8C00F1C000F0F2C001F056EC01F01200D0
:100D9A00F5C0FCF0F6C0FDF0F7C0FEF028DF120047
:100DAA00090E0B6E1E0E0C6EE40E0D6E0D2EFED786
:0C0DBA000C2EFCD70B2EFAD70000120004
:100DC6000001F56B070EF66F010EF76F32DF010EAD
:100DD6000001F56F800EF66F250EF76F000EF86FA7
:080DE600F96F49DFDFDF1200A5
:100DEE000900F5CFE6FF0006FBE10106F9E112006E
:100DFE009C0E0001F56F0F0EF66F000EF76FC6DF3B
:100E0E00A50EF56F000EF66F020EF76F6CDFC10EBA
:100E1E000001F56F000EF66F020EF76F64DF500ED5
:100E2E000001F56F000EF66F020EF76F5CDF6C0EB1
:100E3E000001F56F000EF66F020EF76F54DF880E8D
:100E4E000001F56F000EF66F020EF76F4CDFA6DF96
:020E5E00120080
:100E600095DF00C04EF00050010A15E14F50000A16
:100E700012E1010E4F6E150E0001F56F000EF66FB8
:100E8000020EF76F37DF310E0001F56F000EF66FBF
:100E9000020EF76F2FDF4E50000A14E14F50010A87
:100EA00011E1320E0001F56F000EF66F020EF76FC2
:100EB00021DFA40E0001F56F000EF66F020EF76F32
:060EC00019DF4F6A120069
:0E0EC600FEEC07F07DDF98DFC8DFFED7FFD718
:100FFC0010EE15F0C80E006E010E016ED40EF66EDA
:0E100C000E0EF76E000EF86EF7EC06F01200F6
:100ED4002020202020207E204E4F5420444554457D
:0C0EE40043544544207E202020202000A4
:010EF0000001
:100EF10020202020202020207E204445544543549A
:0C0F01004544207E2020202020202000DD
:010F0D0000E3
:010F0E0000E2
:100F0F002D2D2D2D2D2D2D2D2D2D2D2D2D2D2D2D02
:0C0F1F002D2D2D2D2D2D2D2D2D2D2D00D7
:100F2B0020446574656374696E67206D61676E65D7
:0C0F3B00746963206669656C64732000B3
:100F47002D2D2D2D2D2D2D2D2D2D2D2D2D2D2D2DCA
:0C0F57002D2D2D2D2D2D2D2D2D2D2D009F
:010F6300008D
:100F64002D2D2D2D2D2D2D2D2D2D2D2D2D2D2D2DAD
:0C0F74002D2D2D2D2D2D2D2D2D2D2D0082
:100F800020202020202020496E697469616C697AD4
:0C0F90006174696F6E202020202020007A
:100F9C00980100018A0100015E0100013401000189
:100FAC00260100015001000142010001A6010001CF
:100FBC0008020001FA0100012402000116020001DE
:100FCC0064020000A2020000320200001E040000B5
:100FDC00D60200005A02000050020000500400002B
:100FEC004604000028040000640400005A040000B9
:020000040030CA
:0E00000015137F7CF98B91FFFFC0FFE0FF40DE
:00000001FF
